{
  "contractName": "JobBoard",
  "abi": [
    {
      "anonymous": false,
      "inputs": [
        {
          "indexed": true,
          "internalType": "uint256",
          "name": "jobId",
          "type": "uint256"
        }
      ],
      "name": "EmployerRefunded",
      "type": "event"
    },
    {
      "anonymous": false,
      "inputs": [
        {
          "indexed": true,
          "internalType": "uint256",
          "name": "jobId",
          "type": "uint256"
        },
        {
          "indexed": false,
          "internalType": "uint256",
          "name": "amount",
          "type": "uint256"
        }
      ],
      "name": "FundsEscrowed",
      "type": "event"
    },
    {
      "anonymous": false,
      "inputs": [
        {
          "indexed": true,
          "internalType": "uint256",
          "name": "jobId",
          "type": "uint256"
        },
        {
          "indexed": false,
          "internalType": "address",
          "name": "freelancer",
          "type": "address"
        }
      ],
      "name": "JobApplied",
      "type": "event"
    },
    {
      "anonymous": false,
      "inputs": [
        {
          "indexed": true,
          "internalType": "uint256",
          "name": "jobId",
          "type": "uint256"
        },
        {
          "indexed": false,
          "internalType": "string",
          "name": "title",
          "type": "string"
        },
        {
          "indexed": false,
          "internalType": "uint256",
          "name": "budget",
          "type": "uint256"
        }
      ],
      "name": "JobPosted",
      "type": "event"
    },
    {
      "anonymous": false,
      "inputs": [
        {
          "indexed": true,
          "internalType": "uint256",
          "name": "jobId",
          "type": "uint256"
        }
      ],
      "name": "PaymentReleased",
      "type": "event"
    },
    {
      "inputs": [
        {
          "internalType": "uint256",
          "name": "",
          "type": "uint256"
        }
      ],
      "name": "escrowedFunds",
      "outputs": [
        {
          "internalType": "uint256",
          "name": "",
          "type": "uint256"
        }
      ],
      "stateMutability": "view",
      "type": "function",
      "constant": true
    },
    {
      "inputs": [],
      "name": "jobCount",
      "outputs": [
        {
          "internalType": "uint256",
          "name": "",
          "type": "uint256"
        }
      ],
      "stateMutability": "view",
      "type": "function",
      "constant": true
    },
    {
      "inputs": [
        {
          "internalType": "uint256",
          "name": "",
          "type": "uint256"
        }
      ],
      "name": "jobs",
      "outputs": [
        {
          "internalType": "string",
          "name": "title",
          "type": "string"
        },
        {
          "internalType": "uint256",
          "name": "budget",
          "type": "uint256"
        },
        {
          "internalType": "address payable",
          "name": "employer",
          "type": "address"
        },
        {
          "internalType": "address payable",
          "name": "freelancer",
          "type": "address"
        },
        {
          "internalType": "enum JobBoard.JobStatus",
          "name": "status",
          "type": "uint8"
        }
      ],
      "stateMutability": "view",
      "type": "function",
      "constant": true
    },
    {
      "inputs": [
        {
          "internalType": "string",
          "name": "title",
          "type": "string"
        },
        {
          "internalType": "uint256",
          "name": "budget",
          "type": "uint256"
        }
      ],
      "name": "postJob",
      "outputs": [],
      "stateMutability": "nonpayable",
      "type": "function"
    },
    {
      "inputs": [
        {
          "internalType": "uint256",
          "name": "jobId",
          "type": "uint256"
        }
      ],
      "name": "applyForJob",
      "outputs": [],
      "stateMutability": "nonpayable",
      "type": "function"
    },
    {
      "inputs": [
        {
          "internalType": "uint256",
          "name": "jobId",
          "type": "uint256"
        }
      ],
      "name": "escrowFunds",
      "outputs": [],
      "stateMutability": "payable",
      "type": "function",
      "payable": true
    },
    {
      "inputs": [
        {
          "internalType": "uint256",
          "name": "jobId",
          "type": "uint256"
        }
      ],
      "name": "releasePayment",
      "outputs": [],
      "stateMutability": "nonpayable",
      "type": "function"
    },
    {
      "inputs": [
        {
          "internalType": "uint256",
          "name": "jobId",
          "type": "uint256"
        }
      ],
      "name": "refundEmployer",
      "outputs": [],
      "stateMutability": "nonpayable",
      "type": "function"
    },
    {
      "inputs": [],
      "name": "getJobCount",
      "outputs": [
        {
          "internalType": "uint256",
          "name": "",
          "type": "uint256"
        }
      ],
      "stateMutability": "view",
      "type": "function",
      "constant": true
    },
    {
      "inputs": [
        {
          "internalType": "uint256",
          "name": "jobId",
          "type": "uint256"
        }
      ],
      "name": "getJob",
      "outputs": [
        {
          "components": [
            {
              "internalType": "string",
              "name": "title",
              "type": "string"
            },
            {
              "internalType": "uint256",
              "name": "budget",
              "type": "uint256"
            },
            {
              "internalType": "address payable",
              "name": "employer",
              "type": "address"
            },
            {
              "internalType": "address payable",
              "name": "freelancer",
              "type": "address"
            },
            {
              "internalType": "enum JobBoard.JobStatus",
              "name": "status",
              "type": "uint8"
            }
          ],
          "internalType": "struct JobBoard.Job",
          "name": "",
          "type": "tuple"
        }
      ],
      "stateMutability": "view",
      "type": "function",
      "constant": true
    },
    {
      "inputs": [
        {
          "internalType": "uint256",
          "name": "jobId",
          "type": "uint256"
        }
      ],
      "name": "getEscrowed",
      "outputs": [
        {
          "internalType": "uint256",
          "name": "",
          "type": "uint256"
        }
      ],
      "stateMutability": "view",
      "type": "function",
      "constant": true
    }
  ],
  "bytecode": "0x608060405234801561001057600080fd5b50610e07806100206000396000f3fe60806040526004361061009c5760003560e01c8063b02b4a2f11610064578063b02b4a2f14610152578063b489e14714610167578063bf22c45714610187578063df7903ea146101b4578063e0c94ae5146101d4578063eb9a4e93146101f45761009c565b8063180aedf3146100a157806334013c40146100db578063388e048f146100f05780634c5d8a0f1461011d57806388685cd914610132575b600080fd5b3480156100ad57600080fd5b506100c16100bc366004610adf565b610214565b6040516100d2959493929190610bb0565b60405180910390f35b6100ee6100e9366004610adf565b6102de565b005b3480156100fc57600080fd5b5061011061010b366004610adf565b6103a7565b6040516100d29190610d66565b34801561012957600080fd5b506101106103b9565b34801561013e57600080fd5b506100ee61014d366004610adf565b6103bf565b34801561015e57600080fd5b506101106104eb565b34801561017357600080fd5b50610110610182366004610adf565b6104f1565b34801561019357600080fd5b506101a76101a2366004610adf565b610503565b6040516100d29190610d02565b3480156101c057600080fd5b506100ee6101cf366004610adf565b610637565b3480156101e057600080fd5b506100ee6101ef366004610adf565b610761565b34801561020057600080fd5b506100ee61020f366004610a6c565b610847565b60016020526000908152604090208054819061022f90610d6f565b80601f016020809104026020016040519081016040528092919081815260200182805461025b90610d6f565b80156102a85780601f1061027d576101008083540402835291602001916102a8565b820191906000526020600020905b81548152906001019060200180831161028b57829003601f168201915b5050505060018301546002840154600390940154929390926001600160a01b03918216925090811690600160a01b900460ff1685565b60008181526001602052604090206002015481906001600160a01b031633146103225760405162461bcd60e51b815260040161031990610bfa565b60405180910390fd5b60008281526001602081905260409091209081015434146103555760405162461bcd60e51b815260040161031990610cad565b600083815260026020526040908190203490819055905184917f06b740c734bbcd0a75866d82c066bc234cde7aa1ad6da3d327008f89d461d2ed9161039a9190610d66565b60405180910390a2505050565b60009081526002602052604090205490565b60005481565b60008181526001602052604090206002015481906001600160a01b031633146103fa5760405162461bcd60e51b815260040161031990610bfa565b6000828152600160208190526040909120906003820154600160a01b900460ff16600281111561043a57634e487b7160e01b600052602160045260246000fd5b146104575760405162461bcd60e51b815260040161031990610c24565b60008381526002602052604080822080549083905560038401805460ff60a01b1916600160a11b1790819055915190926001600160a01b039092169183156108fc02918491818181858888f193505050501580156104b9573d6000803e3d6000fd5b5060405184907f7094d01aa39ef767229e67850ef530b588b0dc1576b827e94f51a1f06300743490600090a250505050565b60005490565b60026020526000908152604090205481565b61050b6109a7565b60008281526001602052604090819020815160a0810190925280548290829061053390610d6f565b80601f016020809104026020016040519081016040528092919081815260200182805461055f90610d6f565b80156105ac5780601f10610581576101008083540402835291602001916105ac565b820191906000526020600020905b81548152906001019060200180831161058f57829003601f168201915b5050509183525050600182015460208201526002808301546001600160a01b03908116604084015260038401549081166060840152608090920191600160a01b900460ff169081111561060f57634e487b7160e01b600052602160045260246000fd5b600281111561062e57634e487b7160e01b600052602160045260246000fd5b90525092915050565b60008181526001602052604090206002015481906001600160a01b031633146106725760405162461bcd60e51b815260040161031990610bfa565b600082815260016020526040902060026003820154600160a01b900460ff1660028111156106b057634e487b7160e01b600052602160045260246000fd5b14156106ce5760405162461bcd60e51b815260040161031990610cd7565b600083815260026020819052604080832080549084905560038501805460ff60a01b1916905591840154905191926001600160a01b03909116916108fc84150291849190818181858888f1935050505015801561072f573d6000803e3d6000fd5b5060405184907fc6470ef508a37a26de9fee147b2baab64b9af63403cc8276c2e856ad14f08aef90600090a250505050565b6000818152600160205260408120906003820154600160a01b900460ff16600281111561079e57634e487b7160e01b600052602160045260246000fd5b146107bb5760405162461bcd60e51b815260040161031990610c82565b60038101546001600160a01b0316156107e65760405162461bcd60e51b815260040161031990610c5b565b6003810180546001600160a01b0319163390811760ff60a01b1916600160a01b1790915560405183917fffa837d183240a5f25cbd643a8eade702c0c9c3e186c59c7d929e4f1a3438d869161083b9190610b64565b60405180910390a25050565b6040518060a0016040528084848080601f016020809104026020016040519081016040528093929190818152602001838380828437600092018290525093855250505060208201849052336040830152606082018190526080909101526000805481526001602090815260409091208251805191926108cb928492909101906109d3565b50602082015160018201556040820151600280830180546001600160a01b039384166001600160a01b0319918216179091556060850151600385018054919094169116178083556080850151929160ff60a01b1990911690600160a01b90849081111561094857634e487b7160e01b600052602160045260246000fd5b02179055509050506000547f9358319357550ea295b37318861921d6b434f25ebdcb0d5209bde40d4c6b981d84848460405161098693929190610b78565b60405180910390a260008054908061099d83610daa565b9190505550505050565b6040805160a0810182526060808252600060208301819052928201839052810182905290608082015290565b8280546109df90610d6f565b90600052602060002090601f016020900481019282610a015760008555610a47565b82601f10610a1a57805160ff1916838001178555610a47565b82800160010185558215610a47579182015b82811115610a47578251825591602001919060010190610a2c565b50610a53929150610a57565b5090565b5b80821115610a535760008155600101610a58565b600080600060408486031215610a80578283fd5b833567ffffffffffffffff80821115610a97578485fd5b818601915086601f830112610aaa578485fd5b813581811115610ab8578586fd5b876020828501011115610ac9578586fd5b6020928301989097509590910135949350505050565b600060208284031215610af0578081fd5b5035919050565b60038110610b1557634e487b7160e01b600052602160045260246000fd5b9052565b60008151808452815b81811015610b3e57602081850181015186830182015201610b22565b81811115610b4f5782602083870101525b50601f01601f19169290920160200192915050565b6001600160a01b0391909116815260200190565b6000604082528360408301528385606084013780606085840101526060601f19601f8601168301019050826020830152949350505050565b600060a08252610bc360a0830188610b19565b602083018790526001600160a01b038681166040850152851660608401529050610bf06080830184610af7565b9695505050505050565b60208082526010908201526f2737ba103a34329032b6b83637bcb2b960811b604082015260600190565b60208082526018908201527f4a6f62206e6f7420696e20636f72726563742073746174650000000000000000604082015260600190565b6020808252600d908201526c20b63932b0b23c903a30b5b2b760991b604082015260600190565b6020808252601190820152704a6f62206e6f7420617661696c61626c6560781b604082015260600190565b60208082526010908201526f125b98dbdc9c9958dd08185b5bdd5b9d60821b604082015260600190565b602080825260119082015270105b1c9958591e4818dbdb5c1b195d1959607a1b604082015260600190565b600060208252825160a06020840152610d1e60c0840182610b19565b905060208401516040840152604084015160018060a01b03808216606086015280606087015116608086015250506080840151610d5e60a0850182610af7565b509392505050565b90815260200190565b600281046001821680610d8357607f821691505b60208210811415610da457634e487b7160e01b600052602260045260246000fd5b50919050565b6000600019821415610dca57634e487b7160e01b81526011600452602481fd5b506001019056fea26469706673582212209718c7816537cfd1f3bc7cdf108a89bea5b0f8f6b1ddded955b37084b62a596b64736f6c63430008000033",
  "immutableReferences": {},
  "source": "// SPDX-License-Identifier: MIT\r\npragma solidity ^0.8.0;\r\n\r\ncontract JobBoard {\r\n    enum JobStatus { Open, Assigned, Completed }\r\n\r\n    struct Job {\r\n        string title;\r\n        uint256 budget;\r\n        address payable employer;\r\n        address payable freelancer;\r\n        JobStatus status;\r\n    }\r\n\r\n    uint256 public jobCount;\r\n    mapping(uint256 => Job) public jobs;\r\n    mapping(uint256 => uint256) public escrowedFunds;\r\n\r\n    event JobPosted(uint256 indexed jobId, string title, uint256 budget);\r\n    event JobApplied(uint256 indexed jobId, address freelancer);\r\n    event FundsEscrowed(uint256 indexed jobId, uint256 amount);\r\n    event PaymentReleased(uint256 indexed jobId);\r\n    event EmployerRefunded(uint256 indexed jobId);\r\n\r\n    modifier onlyEmployer(uint256 jobId) {\r\n        require(msg.sender == jobs[jobId].employer, \"Not the employer\");\r\n        _;\r\n    }\r\n\r\n    modifier onlyFreelancer(uint256 jobId) {\r\n        require(msg.sender == jobs[jobId].freelancer, \"Not the freelancer\");\r\n        _;\r\n    }\r\n\r\n    function postJob(string calldata title, uint256 budget) external {\r\n        jobs[jobCount] = Job({\r\n            title: title,\r\n            budget: budget,\r\n            employer: payable(msg.sender),\r\n            freelancer: payable(address(0)),\r\n            status: JobStatus.Open\r\n        });\r\n        emit JobPosted(jobCount, title, budget);\r\n        jobCount++;\r\n    }\r\n\r\n    function applyForJob(uint256 jobId) external {\r\n        Job storage job = jobs[jobId];\r\n        require(job.status == JobStatus.Open, \"Job not available\");\r\n        require(job.freelancer == address(0), \"Already taken\");\r\n\r\n        job.freelancer = payable(msg.sender);\r\n        job.status = JobStatus.Assigned;\r\n\r\n        emit JobApplied(jobId, msg.sender);\r\n    }\r\n\r\n    function escrowFunds(uint256 jobId) external payable onlyEmployer(jobId) {\r\n        Job storage job = jobs[jobId];\r\n        require(msg.value == job.budget, \"Incorrect amount\");\r\n        escrowedFunds[jobId] = msg.value;\r\n\r\n        emit FundsEscrowed(jobId, msg.value);\r\n    }\r\n\r\n    function releasePayment(uint256 jobId) external onlyEmployer(jobId) {\r\n        Job storage job = jobs[jobId];\r\n        require(job.status == JobStatus.Assigned, \"Job not in correct state\");\r\n\r\n        uint256 amount = escrowedFunds[jobId];\r\n        escrowedFunds[jobId] = 0;\r\n        job.status = JobStatus.Completed;\r\n        job.freelancer.transfer(amount);\r\n\r\n        emit PaymentReleased(jobId);\r\n    }\r\n\r\n    function refundEmployer(uint256 jobId) external onlyEmployer(jobId) {\r\n        Job storage job = jobs[jobId];\r\n        require(job.status != JobStatus.Completed, \"Already completed\");\r\n\r\n        uint256 amount = escrowedFunds[jobId];\r\n        escrowedFunds[jobId] = 0;\r\n        job.status = JobStatus.Open;\r\n        job.employer.transfer(amount);\r\n\r\n        emit EmployerRefunded(jobId);\r\n    }\r\n\r\n    // View Functions\r\n    function getJobCount() external view returns (uint256) {\r\n        return jobCount;\r\n    }\r\n\r\n    function getJob(uint256 jobId) external view returns (Job memory) {\r\n        return jobs[jobId];\r\n    }\r\n\r\n    function getEscrowed(uint256 jobId) external view returns (uint256) {\r\n        return escrowedFunds[jobId];\r\n    }\r\n}\r\n",
  "sourcePath": "C:\\Users\\chand\\job-board\\contracts\\JobBoard.sol",
  "compiler": {
    "name": "solc",
    "version": "0.8.0+commit.c7dfd78e.Emscripten.clang"
  },
  "schemaVersion": "3.4.16",
  "updatedAt": "2025-04-23T18:43:17.063Z",
  "networkType": "ethereum",
  "devdoc": {
    "kind": "dev",
    "methods": {},
    "version": 1
  },
  "userdoc": {
    "kind": "user",
    "methods": {},
    "version": 1
  }
}