{
  "contractName": "Migrations",
  "abi": [
    {
      "inputs": [],
      "name": "owner",
      "outputs": [
        {
          "internalType": "address",
          "name": "",
          "type": "address"
        }
      ],
      "stateMutability": "view",
      "type": "function",
      "constant": true
    },
    {
      "inputs": [
        {
          "internalType": "uint256",
          "name": "",
          "type": "uint256"
        }
      ],
      "name": "setCompleted",
      "outputs": [],
      "stateMutability": "nonpayable",
      "type": "function"
    }
  ],
  "bytecode": "0x6080604052600080546001600160a01b0319163317905534801561002257600080fd5b5061014c806100326000396000f3fe608060405234801561001057600080fd5b50600436106100365760003560e01c80638da5cb5b1461003b578063fdacd57614610059575b600080fd5b61004361006e565b60405161005091906100cb565b60405180910390f35b61006c6100673660046100b3565b61007d565b005b6000546001600160a01b031681565b6000546001600160a01b031633146100b05760405162461bcd60e51b81526004016100a7906100df565b60405180910390fd5b50565b6000602082840312156100c4578081fd5b5035919050565b6001600160a01b0391909116815260200190565b60208082526017908201527f4f6e6c79206f776e65722063616e20636f6d706c65746500000000000000000060408201526060019056fea2646970667358221220c1ba73956790b977f0e4cee7857db7bf179f8450076e7a2b5dbd3f66146a3dc864736f6c63430008000033",
  "immutableReferences": {},
  "source": "// SPDX-License-Identifier: MIT\r\npragma solidity ^0.8.0;\r\n\r\ncontract Migrations {\r\n    address public owner = msg.sender;\r\n\r\n    function setCompleted(uint /*completed*/) public {\r\n        require(msg.sender == owner, \"Only owner can complete\");\r\n    }\r\n}\r\n",
  "sourcePath": "C:\\Users\\chand\\job-board\\contracts\\Migrations.sol",
  "compiler": {
    "name": "solc",
    "version": "0.8.0+commit.c7dfd78e.Emscripten.clang"
  },
  "schemaVersion": "3.4.16",
  "updatedAt": "2025-04-23T18:43:17.238Z",
  "networkType": "ethereum",
  "devdoc": {
    "kind": "dev",
    "methods": {},
    "version": 1
  },
  "userdoc": {
    "kind": "user",
    "methods": {},
    "version": 1
  }
}