{
  "contractName": "JobBoard",
  "abi": [
    {
      "anonymous": false,
      "inputs": [
        {
          "indexed": true,
          "internalType": "uint256",
          "name": "jobId",
          "type": "uint256"
        }
      ],
      "name": "EmployerRefunded",
      "type": "event"
    },
    {
      "anonymous": false,
      "inputs": [
        {
          "indexed": true,
          "internalType": "uint256",
          "name": "jobId",
          "type": "uint256"
        },
        {
          "indexed": false,
          "internalType": "uint256",
          "name": "amount",
          "type": "uint256"
        }
      ],
      "name": "FundsEscrowed",
      "type": "event"
    },
    {
      "anonymous": false,
      "inputs": [
        {
          "indexed": true,
          "internalType": "uint256",
          "name": "jobId",
          "type": "uint256"
        },
        {
          "indexed": false,
          "internalType": "address",
          "name": "freelancer",
          "type": "address"
        }
      ],
      "name": "JobApplied",
      "type": "event"
    },
    {
      "anonymous": false,
      "inputs": [
        {
          "indexed": true,
          "internalType": "uint256",
          "name": "jobId",
          "type": "uint256"
        },
        {
          "indexed": false,
          "internalType": "string",
          "name": "title",
          "type": "string"
        },
        {
          "indexed": false,
          "internalType": "uint256",
          "name": "budget",
          "type": "uint256"
        }
      ],
      "name": "JobPosted",
      "type": "event"
    },
    {
      "anonymous": false,
      "inputs": [
        {
          "indexed": true,
          "internalType": "uint256",
          "name": "jobId",
          "type": "uint256"
        }
      ],
      "name": "PaymentReleased",
      "type": "event"
    },
    {
      "inputs": [
        {
          "internalType": "uint256",
          "name": "",
          "type": "uint256"
        }
      ],
      "name": "escrowedFunds",
      "outputs": [
        {
          "internalType": "uint256",
          "name": "",
          "type": "uint256"
        }
      ],
      "stateMutability": "view",
      "type": "function",
      "constant": true
    },
    {
      "inputs": [],
      "name": "jobCount",
      "outputs": [
        {
          "internalType": "uint256",
          "name": "",
          "type": "uint256"
        }
      ],
      "stateMutability": "view",
      "type": "function",
      "constant": true
    },
    {
      "inputs": [
        {
          "internalType": "uint256",
          "name": "",
          "type": "uint256"
        }
      ],
      "name": "jobs",
      "outputs": [
        {
          "internalType": "string",
          "name": "title",
          "type": "string"
        },
        {
          "internalType": "uint256",
          "name": "budget",
          "type": "uint256"
        },
        {
          "internalType": "address payable",
          "name": "employer",
          "type": "address"
        },
        {
          "internalType": "address payable",
          "name": "freelancer",
          "type": "address"
        },
        {
          "internalType": "enum JobBoard.JobStatus",
          "name": "status",
          "type": "uint8"
        }
      ],
      "stateMutability": "view",
      "type": "function",
      "constant": true
    },
    {
      "inputs": [
        {
          "internalType": "string",
          "name": "title",
          "type": "string"
        },
        {
          "internalType": "uint256",
          "name": "budget",
          "type": "uint256"
        }
      ],
      "name": "postJob",
      "outputs": [],
      "stateMutability": "nonpayable",
      "type": "function"
    },
    {
      "inputs": [
        {
          "internalType": "uint256",
          "name": "jobId",
          "type": "uint256"
        }
      ],
      "name": "applyForJob",
      "outputs": [],
      "stateMutability": "nonpayable",
      "type": "function"
    },
    {
      "inputs": [
        {
          "internalType": "uint256",
          "name": "jobId",
          "type": "uint256"
        }
      ],
      "name": "escrowFunds",
      "outputs": [],
      "stateMutability": "payable",
      "type": "function",
      "payable": true
    },
    {
      "inputs": [
        {
          "internalType": "uint256",
          "name": "jobId",
          "type": "uint256"
        }
      ],
      "name": "releasePayment",
      "outputs": [],
      "stateMutability": "nonpayable",
      "type": "function"
    },
    {
      "inputs": [
        {
          "internalType": "uint256",
          "name": "jobId",
          "type": "uint256"
        }
      ],
      "name": "refundEmployer",
      "outputs": [],
      "stateMutability": "nonpayable",
      "type": "function"
    },
    {
      "inputs": [],
      "name": "getJobCount",
      "outputs": [
        {
          "internalType": "uint256",
          "name": "",
          "type": "uint256"
        }
      ],
      "stateMutability": "view",
      "type": "function",
      "constant": true
    },
    {
      "inputs": [
        {
          "internalType": "uint256",
          "name": "jobId",
          "type": "uint256"
        }
      ],
      "name": "getJob",
      "outputs": [
        {
          "components": [
            {
              "internalType": "string",
              "name": "title",
              "type": "string"
            },
            {
              "internalType": "uint256",
              "name": "budget",
              "type": "uint256"
            },
            {
              "internalType": "address payable",
              "name": "employer",
              "type": "address"
            },
            {
              "internalType": "address payable",
              "name": "freelancer",
              "type": "address"
            },
            {
              "internalType": "enum JobBoard.JobStatus",
              "name": "status",
              "type": "uint8"
            }
          ],
          "internalType": "struct JobBoard.Job",
          "name": "",
          "type": "tuple"
        }
      ],
      "stateMutability": "view",
      "type": "function",
      "constant": true
    },
    {
      "inputs": [
        {
          "internalType": "uint256",
          "name": "jobId",
          "type": "uint256"
        }
      ],
      "name": "getEscrowed",
      "outputs": [
        {
          "internalType": "uint256",
          "name": "",
          "type": "uint256"
        }
      ],
      "stateMutability": "view",
      "type": "function",
      "constant": true
    }
  ],
  "bytecode": "0x608060405234801561001057600080fd5b50611a36806100206000396000f3fe60806040526004361061009c5760003560e01c8063b02b4a2f11610064578063b02b4a2f1461018f578063b489e147146101ba578063bf22c457146101f7578063df7903ea14610234578063e0c94ae51461025d578063eb9a4e93146102865761009c565b8063180aedf3146100a157806334013c40146100e2578063388e048f146100fe5780634c5d8a0f1461013b57806388685cd914610166575b600080fd5b3480156100ad57600080fd5b506100c860048036038101906100c3919061130f565b6102af565b6040516100d9959493929190611683565b60405180910390f35b6100fc60048036038101906100f7919061130f565b6103ba565b005b34801561010a57600080fd5b506101256004803603810190610120919061130f565b610511565b60405161013291906117bf565b60405180910390f35b34801561014757600080fd5b5061015061052e565b60405161015d91906117bf565b60405180910390f35b34801561017257600080fd5b5061018d6004803603810190610188919061130f565b610534565b005b34801561019b57600080fd5b506101a46107d6565b6040516101b191906117bf565b60405180910390f35b3480156101c657600080fd5b506101e160048036038101906101dc919061130f565b6107df565b6040516101ee91906117bf565b60405180910390f35b34801561020357600080fd5b5061021e6004803603810190610219919061130f565b6107f7565b60405161022b919061179d565b60405180910390f35b34801561024057600080fd5b5061025b6004803603810190610256919061130f565b6109f3565b005b34801561026957600080fd5b50610284600480360381019061027f919061130f565b610c95565b005b34801561029257600080fd5b506102ad60048036038101906102a891906112b7565b610ed5565b005b60016020528060005260406000206000915090508060000180546102d2906118bc565b80601f01602080910402602001604051908101604052809291908181526020018280546102fe906118bc565b801561034b5780601f106103205761010080835404028352916020019161034b565b820191906000526020600020905b81548152906001019060200180831161032e57829003601f168201915b5050505050908060010154908060020160009054906101000a900473ffffffffffffffffffffffffffffffffffffffff16908060030160009054906101000a900473ffffffffffffffffffffffffffffffffffffffff16908060030160149054906101000a900460ff16905085565b806001600082815260200190815260200160002060020160009054906101000a900473ffffffffffffffffffffffffffffffffffffffff1673ffffffffffffffffffffffffffffffffffffffff163373ffffffffffffffffffffffffffffffffffffffff161461045f576040517f08c379a0000000000000000000000000000000000000000000000000000000008152600401610456906116dd565b60405180910390fd5b6000600160008481526020019081526020016000209050806001015434146104bc576040517f08c379a00000000000000000000000000000000000000000000000000000000081526004016104b39061175d565b60405180910390fd5b346002600085815260200190815260200160002081905550827f06b740c734bbcd0a75866d82c066bc234cde7aa1ad6da3d327008f89d461d2ed3460405161050491906117bf565b60405180910390a2505050565b600060026000838152602001908152602001600020549050919050565b60005481565b806001600082815260200190815260200160002060020160009054906101000a900473ffffffffffffffffffffffffffffffffffffffff1673ffffffffffffffffffffffffffffffffffffffff163373ffffffffffffffffffffffffffffffffffffffff16146105d9576040517f08c379a00000000000000000000000000000000000000000000000000000000081526004016105d0906116dd565b60405180910390fd5b60006001600084815260200190815260200160002090506001600281111561062a577f4e487b7100000000000000000000000000000000000000000000000000000000600052602160045260246000fd5b8160030160149054906101000a900460ff166002811115610674577f4e487b7100000000000000000000000000000000000000000000000000000000600052602160045260246000fd5b146106b4576040517f08c379a00000000000000000000000000000000000000000000000000000000081526004016106ab906116fd565b60405180910390fd5b6000600260008581526020019081526020016000205490506000600260008681526020019081526020016000208190555060028260030160146101000a81548160ff02191690836002811115610733577f4e487b7100000000000000000000000000000000000000000000000000000000600052602160045260246000fd5b02179055508160030160009054906101000a900473ffffffffffffffffffffffffffffffffffffffff1673ffffffffffffffffffffffffffffffffffffffff166108fc829081150290604051600060405180830381858888f193505050501580156107a2573d6000803e3d6000fd5b50837f7094d01aa39ef767229e67850ef530b588b0dc1576b827e94f51a1f06300743460405160405180910390a250505050565b60008054905090565b60026020528060005260406000206000915090505481565b6107ff611122565b600160008381526020019081526020016000206040518060a001604052908160008201805461082d906118bc565b80601f0160208091040260200160405190810160405280929190818152602001828054610859906118bc565b80156108a65780601f1061087b576101008083540402835291602001916108a6565b820191906000526020600020905b81548152906001019060200180831161088957829003601f168201915b50505050508152602001600182015481526020016002820160009054906101000a900473ffffffffffffffffffffffffffffffffffffffff1673ffffffffffffffffffffffffffffffffffffffff1673ffffffffffffffffffffffffffffffffffffffff1681526020016003820160009054906101000a900473ffffffffffffffffffffffffffffffffffffffff1673ffffffffffffffffffffffffffffffffffffffff1673ffffffffffffffffffffffffffffffffffffffff1681526020016003820160149054906101000a900460ff1660028111156109b0577f4e487b7100000000000000000000000000000000000000000000000000000000600052602160045260246000fd5b60028111156109e8577f4e487b7100000000000000000000000000000000000000000000000000000000600052602160045260246000fd5b815250509050919050565b806001600082815260200190815260200160002060020160009054906101000a900473ffffffffffffffffffffffffffffffffffffffff1673ffffffffffffffffffffffffffffffffffffffff163373ffffffffffffffffffffffffffffffffffffffff1614610a98576040517f08c379a0000000000000000000000000000000000000000000000000000000008152600401610a8f906116dd565b60405180910390fd5b6000600160008481526020019081526020016000209050600280811115610ae8577f4e487b7100000000000000000000000000000000000000000000000000000000600052602160045260246000fd5b8160030160149054906101000a900460ff166002811115610b32577f4e487b7100000000000000000000000000000000000000000000000000000000600052602160045260246000fd5b1415610b73576040517f08c379a0000000000000000000000000000000000000000000000000000000008152600401610b6a9061177d565b60405180910390fd5b6000600260008581526020019081526020016000205490506000600260008681526020019081526020016000208190555060008260030160146101000a81548160ff02191690836002811115610bf2577f4e487b7100000000000000000000000000000000000000000000000000000000600052602160045260246000fd5b02179055508160020160009054906101000a900473ffffffffffffffffffffffffffffffffffffffff1673ffffffffffffffffffffffffffffffffffffffff166108fc829081150290604051600060405180830381858888f19350505050158015610c61573d6000803e3d6000fd5b50837fc6470ef508a37a26de9fee147b2baab64b9af63403cc8276c2e856ad14f08aef60405160405180910390a250505050565b600060016000838152602001908152602001600020905060006002811115610ce6577f4e487b7100000000000000000000000000000000000000000000000000000000600052602160045260246000fd5b8160030160149054906101000a900460ff166002811115610d30577f4e487b7100000000000000000000000000000000000000000000000000000000600052602160045260246000fd5b14610d70576040517f08c379a0000000000000000000000000000000000000000000000000000000008152600401610d679061173d565b60405180910390fd5b600073ffffffffffffffffffffffffffffffffffffffff168160030160009054906101000a900473ffffffffffffffffffffffffffffffffffffffff1673ffffffffffffffffffffffffffffffffffffffff1614610e03576040517f08c379a0000000000000000000000000000000000000000000000000000000008152600401610dfa9061171d565b60405180910390fd5b338160030160006101000a81548173ffffffffffffffffffffffffffffffffffffffff021916908373ffffffffffffffffffffffffffffffffffffffff16021790555060018160030160146101000a81548160ff02191690836002811115610e94577f4e487b7100000000000000000000000000000000000000000000000000000000600052602160045260246000fd5b0217905550817fffa837d183240a5f25cbd643a8eade702c0c9c3e186c59c7d929e4f1a3438d8633604051610ec99190611636565b60405180910390a25050565b6040518060a0016040528084848080601f016020809104026020016040519081016040528093929190818152602001838380828437600081840152601f19601f8201169050808301925050505050505081526020018281526020013373ffffffffffffffffffffffffffffffffffffffff168152602001600073ffffffffffffffffffffffffffffffffffffffff16815260200160006002811115610fa3577f4e487b7100000000000000000000000000000000000000000000000000000000600052602160045260246000fd5b81525060016000805481526020019081526020016000206000820151816000019080519060200190610fd69291906111b5565b506020820151816001015560408201518160020160006101000a81548173ffffffffffffffffffffffffffffffffffffffff021916908373ffffffffffffffffffffffffffffffffffffffff16021790555060608201518160030160006101000a81548173ffffffffffffffffffffffffffffffffffffffff021916908373ffffffffffffffffffffffffffffffffffffffff16021790555060808201518160030160146101000a81548160ff021916908360028111156110c0577f4e487b7100000000000000000000000000000000000000000000000000000000600052602160045260246000fd5b02179055509050506000547f9358319357550ea295b37318861921d6b434f25ebdcb0d5209bde40d4c6b981d8484846040516110fe93929190611651565b60405180910390a2600080815480929190611118906118ee565b9190505550505050565b6040518060a001604052806060815260200160008152602001600073ffffffffffffffffffffffffffffffffffffffff168152602001600073ffffffffffffffffffffffffffffffffffffffff168152602001600060028111156111af577f4e487b7100000000000000000000000000000000000000000000000000000000600052602160045260246000fd5b81525090565b8280546111c1906118bc565b90600052602060002090601f0160209004810192826111e3576000855561122a565b82601f106111fc57805160ff191683800117855561122a565b8280016001018555821561122a579182015b8281111561122957825182559160200191906001019061120e565b5b509050611237919061123b565b5090565b5b8082111561125457600081600090555060010161123c565b5090565b60008083601f84011261126a57600080fd5b8235905067ffffffffffffffff81111561128357600080fd5b60208301915083600182028301111561129b57600080fd5b9250929050565b6000813590506112b1816119e9565b92915050565b6000806000604084860312156112cc57600080fd5b600084013567ffffffffffffffff8111156112e657600080fd5b6112f286828701611258565b93509350506020611305868287016112a2565b9150509250925092565b60006020828403121561132157600080fd5b600061132f848285016112a2565b91505092915050565b61134181611819565b82525050565b61135081611819565b82525050565b61135f81611807565b82525050565b61136e81611868565b82525050565b61137d81611868565b82525050565b600061138f83856117f6565b935061139c83858461187a565b6113a5836119c4565b840190509392505050565b60006113bb826117da565b6113c581856117e5565b93506113d5818560208601611889565b6113de816119c4565b840191505092915050565b60006113f4826117da565b6113fe81856117f6565b935061140e818560208601611889565b611417816119c4565b840191505092915050565b600061142f6010836117f6565b91507f4e6f742074686520656d706c6f796572000000000000000000000000000000006000830152602082019050919050565b600061146f6018836117f6565b91507f4a6f62206e6f7420696e20636f727265637420737461746500000000000000006000830152602082019050919050565b60006114af600d836117f6565b91507f416c72656164792074616b656e000000000000000000000000000000000000006000830152602082019050919050565b60006114ef6011836117f6565b91507f4a6f62206e6f7420617661696c61626c650000000000000000000000000000006000830152602082019050919050565b600061152f6010836117f6565b91507f496e636f727265637420616d6f756e74000000000000000000000000000000006000830152602082019050919050565b600061156f6011836117f6565b91507f416c726561647920636f6d706c657465640000000000000000000000000000006000830152602082019050919050565b600060a08301600083015184820360008601526115bf82826113b0565b91505060208301516115d46020860182611618565b5060408301516115e76040860182611338565b5060608301516115fa6060860182611338565b50608083015161160d6080860182611365565b508091505092915050565b6116218161185e565b82525050565b6116308161185e565b82525050565b600060208201905061164b6000830184611356565b92915050565b6000604082019050818103600083015261166c818587611383565b905061167b6020830184611627565b949350505050565b600060a082019050818103600083015261169d81886113e9565b90506116ac6020830187611627565b6116b96040830186611347565b6116c66060830185611347565b6116d36080830184611374565b9695505050505050565b600060208201905081810360008301526116f681611422565b9050919050565b6000602082019050818103600083015261171681611462565b9050919050565b60006020820190508181036000830152611736816114a2565b9050919050565b60006020820190508181036000830152611756816114e2565b9050919050565b6000602082019050818103600083015261177681611522565b9050919050565b6000602082019050818103600083015261179681611562565b9050919050565b600060208201905081810360008301526117b781846115a2565b905092915050565b60006020820190506117d46000830184611627565b92915050565b600081519050919050565b600082825260208201905092915050565b600082825260208201905092915050565b60006118128261183e565b9050919050565b60006118248261183e565b9050919050565b6000819050611839826119d5565b919050565b600073ffffffffffffffffffffffffffffffffffffffff82169050919050565b6000819050919050565b60006118738261182b565b9050919050565b82818337600083830152505050565b60005b838110156118a757808201518184015260208101905061188c565b838111156118b6576000848401525b50505050565b600060028204905060018216806118d457607f821691505b602082108114156118e8576118e7611995565b5b50919050565b60006118f98261185e565b91507fffffffffffffffffffffffffffffffffffffffffffffffffffffffffffffffff82141561192c5761192b611937565b5b600182019050919050565b7f4e487b7100000000000000000000000000000000000000000000000000000000600052601160045260246000fd5b7f4e487b7100000000000000000000000000000000000000000000000000000000600052602160045260246000fd5b7f4e487b7100000000000000000000000000000000000000000000000000000000600052602260045260246000fd5b6000601f19601f8301169050919050565b600381106119e6576119e5611966565b5b50565b6119f28161185e565b81146119fd57600080fd5b5056fea26469706673582212208a7f7e4d77a1726515978199bfd514946af0bcb51bf69e7f1f3aa7aa4eca179164736f6c63430008000033",
  "immutableReferences": {},
  "source": "// SPDX-License-Identifier: MIT\r\npragma solidity ^0.8.0;\r\n\r\ncontract JobBoard {\r\n    enum JobStatus { Open, Assigned, Completed }\r\n\r\n    struct Job {\r\n        string title;\r\n        uint256 budget;\r\n        address payable employer;\r\n        address payable freelancer;\r\n        JobStatus status;\r\n    }\r\n\r\n    uint256 public jobCount;\r\n    mapping(uint256 => Job) public jobs;\r\n    mapping(uint256 => uint256) public escrowedFunds;\r\n\r\n    event JobPosted(uint256 indexed jobId, string title, uint256 budget);\r\n    event JobApplied(uint256 indexed jobId, address freelancer);\r\n    event FundsEscrowed(uint256 indexed jobId, uint256 amount);\r\n    event PaymentReleased(uint256 indexed jobId);\r\n    event EmployerRefunded(uint256 indexed jobId);\r\n\r\n    modifier onlyEmployer(uint256 jobId) {\r\n        require(msg.sender == jobs[jobId].employer, \"Not the employer\");\r\n        _;\r\n    }\r\n\r\n    modifier onlyFreelancer(uint256 jobId) {\r\n        require(msg.sender == jobs[jobId].freelancer, \"Not the freelancer\");\r\n        _;\r\n    }\r\n\r\n    function postJob(string calldata title, uint256 budget) external {\r\n        jobs[jobCount] = Job({\r\n            title: title,\r\n            budget: budget,\r\n            employer: payable(msg.sender),\r\n            freelancer: payable(address(0)),\r\n            status: JobStatus.Open\r\n        });\r\n        emit JobPosted(jobCount, title, budget);\r\n        jobCount++;\r\n    }\r\n\r\n    function applyForJob(uint256 jobId) external {\r\n        Job storage job = jobs[jobId];\r\n        require(job.status == JobStatus.Open, \"Job not available\");\r\n        require(job.freelancer == address(0), \"Already taken\");\r\n\r\n        job.freelancer = payable(msg.sender);\r\n        job.status = JobStatus.Assigned;\r\n\r\n        emit JobApplied(jobId, msg.sender);\r\n    }\r\n\r\n    function escrowFunds(uint256 jobId) external payable onlyEmployer(jobId) {\r\n        Job storage job = jobs[jobId];\r\n        require(msg.value == job.budget, \"Incorrect amount\");\r\n        escrowedFunds[jobId] = msg.value;\r\n\r\n        emit FundsEscrowed(jobId, msg.value);\r\n    }\r\n\r\n    function releasePayment(uint256 jobId) external onlyEmployer(jobId) {\r\n        Job storage job = jobs[jobId];\r\n        require(job.status == JobStatus.Assigned, \"Job not in correct state\");\r\n\r\n        uint256 amount = escrowedFunds[jobId];\r\n        escrowedFunds[jobId] = 0;\r\n        job.status = JobStatus.Completed;\r\n        job.freelancer.transfer(amount);\r\n\r\n        emit PaymentReleased(jobId);\r\n    }\r\n\r\n    function refundEmployer(uint256 jobId) external onlyEmployer(jobId) {\r\n        Job storage job = jobs[jobId];\r\n        require(job.status != JobStatus.Completed, \"Already completed\");\r\n\r\n        uint256 amount = escrowedFunds[jobId];\r\n        escrowedFunds[jobId] = 0;\r\n        job.status = JobStatus.Open;\r\n        job.employer.transfer(amount);\r\n\r\n        emit EmployerRefunded(jobId);\r\n    }\r\n\r\n    // View Functions\r\n    function getJobCount() external view returns (uint256) {\r\n        return jobCount;\r\n    }\r\n\r\n    function getJob(uint256 jobId) external view returns (Job memory) {\r\n        return jobs[jobId];\r\n    }\r\n\r\n    function getEscrowed(uint256 jobId) external view returns (uint256) {\r\n        return escrowedFunds[jobId];\r\n    }\r\n}\r\n",
  "sourcePath": "C:\\Users\\chand\\job-board\\contracts\\JobBoard.sol",
  "compiler": {
    "name": "solc",
    "version": "0.8.0+commit.c7dfd78e.Emscripten.clang"
  },
  "schemaVersion": "3.4.16",
  "updatedAt": "2025-04-23T13:24:19.172Z",
  "networkType": "ethereum",
  "devdoc": {
    "kind": "dev",
    "methods": {},
    "version": 1
  },
  "userdoc": {
    "kind": "user",
    "methods": {},
    "version": 1
  }
}